:020000040800F2
:100000004007002089010008AD110008C50E000856
:10001000991000088F020008151500080000000064
:10002000000000000000000000000000B111000806
:100030009102000800000000AF110008B311000891
:10004000A3010008A3010008A3010008A301000800
:10005000A3010008A3010008A3010008A3010008F0
:10006000A3010008A3010008A3010008A3010008E0
:10007000A3010008A3010008A3010008A3010008D0
:10008000A3010008A3010008A3010008A3010008C0
:10009000A3010008A3010008A3010008A3010008B0
:1000A000A3010008A3010008A3010008A3010008A0
:1000B000A3010008A3010008A3010008A301000890
:1000C000A3010008A3010008A3010008A301000880
:1000D000A3010008A3010008A3010008A301000870
:1000E000A3010008A3010008A301000800F002F822
:1000F00000F03AF80AA090E8000C82448344AAF188
:100100000107DA4501D100F02FF8AFF2090EBAE885
:100110000F0013F0010F18BFFB1A43F0010318473B
:100120004019000060190000103A24BF78C878C157
:10013000FAD8520724BF30C830C144BF04680C60ED
:10014000704700000023002400250026103A28BF35
:1001500078C1FBD8520728BF30C148BF0B60704739
:100160001FB51FBD10B510BD00F058F81146FFF7C0
:10017000F7FF01F0E1F900F076F803B4FFF7F2FFC2
:1001800003BC00F07DF8000009488047094800479B
:10019000FEE7FEE7FEE7FEE7FEE7FEE7FEE7FEE737
:1001A000FEE7FEE704480549054A064B7047000094
:1001B00015120008ED000008400100204007002053
:1001C00040030020400300204FF0000200B513461A
:1001D00094469646203922BFA0E80C50A0E80C5067
:1001E000B1F12001BFF4F7AF090728BFA0E80C5018
:1001F00048BF0CC05DF804EB890028BF40F8042B11
:1002000008BF704748BF20F8022B11F0804F18BF7D
:1002100000F8012B7047704770477047754600F033
:100220002BF8AE4605006946534620F00700854688
:1002300018B020B5FFF7B6FFBDE820404FF000062C
:100240004FF000074FF000084FF0000B21F00701BE
:10025000AC46ACE8C009ACE8C009ACE8C009ACE801
:10026000C0098D46704710B50446AFF300802046A4
:10027000BDE81040FFF781BF00487047E000002054
:1002800001491820ABBEFEE7260002007047FEE7DA
:10029000704772B6FEE700002DE9F84FDFF8B8911D
:1002A0000024A9F1040B23460F2709F1040AABF13E
:1002B000040EC9E00125A5402A40AA427DD1674E1F
:1002C000D1F804C0ACEB0608B44532D014DCBCF164
:1002D000030F3AD009DCBCF1000F2AD0BCF1010FAA
:1002E0001CD0BCF1020F31D11DE0BCF1110F17D0B1
:1002F000BCF1120F2AD119E0B8F5881F19D006DC1D
:10030000B8F5803F15D0B8F5801F1FD111E0B8F5C2
:10031000001F0ED0B8F5041F18D10AE0CB6815E015
:10032000CB681B1D12E0CB6808330FE0CB680C33A1
:100330000CE08B682BB1012B4FF0080303D0456113
:1003400004E0042302E0056100E00023FF2A01D855
:10035000064601E000F104064FEA840501D9A5F143
:100360002005D6F8008007FA05FC28EA0C0803FAF5
:1003700005F548EA0508C6F800804D68ED0062D52D
:10038000374DAE6946F00106AE61AD6924F0030653
:1003900005F001050095334D06EB050CDCF808501F
:1003A000A607360F07FA06F825EA0805DFF8B88031
:1003B000404503D14FF0000817E044E0DFF8AC807F
:1003C000404502D14FF001080FE0DFF8A48040451E
:1003D00002D14FF0020808E0DFF89880404502D1D2
:1003E0004FF0030801E04FF0040808FA06F848EA65
:1003F0000508CCF808804D68D9F80060ED024D463C
:1004000001D5164300E096432E604D68DAF800608F
:10041000AD02554601D5164300E096432E604D6867
:10042000DBF80060AD035D4601D5164300E096435E
:100430002E604D68DEF80060ED03754601D5164369
:1004400000E096432E60641C0D682A46E5407FF468
:1004500031AFBDE8F88F0000080401400000111022
:10046000001002400000014000080140000C014063
:1004700000100140001401400AB1016170470904F5
:10048000FBE7000001488068704700004000002042
:100490000248816802781144816070474000002062
:1004A000074810B5016841F010010160032000F019
:1004B00067F80F2000F006F800F024F8002010BDC7
:1004C0000020024070B50D4D04464FF47A71287833
:1004D000B1FBF0F00A490968B1FBF0F000F0CEFA88
:1004E00048B9102C07D200222146501E00F028F8EF
:1004F00000206C6070BD012070BD00004000002035
:100500004C0000200C4808B5816941F0010181616F
:10051000816901F001010091C16941F08051C1611F
:10052000C06900F0805000900448416821F0E0610B
:1005300041F00071416008BD001002400000014020
:10054000F0B40E4B1B680C46C3F30223C3F107053E
:10055000042D00D90425191D072901D2002300E02C
:10056000DB1E012606FA05F1491E214099409E40F6
:10057000761E16403143F0BC00F0CDBF0CED00E01C
:10058000064900F0070208684FF6FF03184040EAEA
:100590000220034A10430860704700000CED00E0A1
:1005A0000000FA052DE9F0470F46050061D0434EE3
:1005B000306800F00700B84209D2306820F0070028
:1005C00038433060306800F00700B84251D12868E5
:1005D0003B4C810712D5400703D5606840F4E060CA
:1005E00060602878000703D5606840F46050606060
:1005F0006068A96820F0F000084360602878C007B0
:1006000028D06868012810D02168022810D08907F6
:1006100000292EDA616821F0030101436160FFF7D0
:1006200031FF804641F288390DE021688903EFE708
:100630008901EDE7FFF726FFA0EB0801494502D944
:100640000320BDE8F0876068696800F00C00B0EB3B
:10065000810FEFD1306800F00700B8420BD9306845
:1006600020F0070038433060306800F00700B842DF
:1006700001D00120E5E72878400705D56068E968E2
:1006800020F4E060084360602878000706D56068C1
:10069000296920F4605040EAC100606000F038F839
:1006A0006168084AC1F30311515CC84006490860FB
:1006B00006480068FFF706FF0020C2E7002002405E
:1006C00000100240481A00084C000020440000209E
:1006D0000448054900684968044AC1F30221515C95
:1006E000C84070474C00002000100240581A000813
:1006F0000448054900684968044AC1F3C221515CB5
:10070000C84070474C00002000100240581A0008F2
:100710000E4A51680E4801F00C03042B11D0082B2F
:100720000FD10C48C1F38343C903C05C0AD551689B
:10073000084AC1F34041921E515C054A5043B0FB48
:10074000F1F0704704494843704700000010024030
:1007500000127A00381A000800093D002DE9F84F10
:10076000040070D02078C04DC00749D06868C0F33D
:100770008100012807D06868C0F38100022809D1F0
:100780006868C00306D52868800339D560680028EA
:10079000E7D035E06068B0F5803F0BD010B1B0F520
:1007A000A02F11D0286820F480302860286820F419
:1007B000802002E0286840F480302860606890B1B2
:1007C000FFF760FE06460AE0286840F480202860B3
:1007D000F0E700BFFFF756FE801B642873D8286837
:1007E0008003F7D50CE0FFF74DFE064605E000BF9D
:1007F000FFF748FE801B6428F0D828688003F7D4F0
:1008000020789A4E80074FF001094FF0000839D543
:10081000686810F00C0F07D06868C0F381000228E8
:1008200009D16868C00306D42868800714D52069F8
:10083000012808D110E02069B0B1C6F80090FFF798
:1008400021FE074605E00AE1FFF71CFEC01B022857
:10085000C4D828688007F7D52868616920F0F800B7
:1008600040EAC10028600DE0C6F80080FFF70AFEEC
:10087000074604E0FFF706FEC01B022823D82868BD
:100880008007F7D4207800072CD57948A169D9B121
:10089000C0F80090FFF7F6FD074604E0FFF7F2FD11
:1008A000C01B02280FD8686A8007F7D571484FF43B
:1008B000FA510068B0FBF1F0009000BF0098411EB3
:1008C0000091FAD20EE080E0C0F80080FFF7DAFD78
:1008D000074604E0FFF7D6FDC01B022875D8686AFA
:1008E0008007F7D42078400760D5E8690027C0006A
:1008F00008D4E86940F08050E861E869012700F019
:10090000805000905C480168C90513D40168834693
:1009100041F480710160FFF7B5FD824606E000BF3B
:10092000FFF7B0FDA0EB0A0064284ED8DBF800000A
:10093000C005F5D5E06801280AD008B1052813D014
:10094000286A20F001002862286A20F0040002E0F2
:10095000286A40F001002862E06841F2883B98B1C3
:10096000FFF790FD82460BE0286A40F00400286201
:10097000EEE700BFFFF786FDA0EB0A0159455AD804
:10098000286A8007F6D50CE0FFF77CFD824605E07B
:10099000FFF778FDA0EB0A0159454CD8286A80077B
:1009A000F6D41FB1E86920F08050E861E06988B3AF
:1009B0006968C1F38101022944D00228C6F8608029
:1009C00004D0FFF75FFD044638E034E0FFF75AFD3E
:1009D000074604E0FFF756FDC01B02282BD8286805
:1009E0008001F7D4206AB0F5803F05D16868A1681E
:1009F00020F4003008436860D4E9080108436968BE
:100A000021F4741108436860C6F86090FFF73AFD5E
:100A1000044606E025E000BFFFF734FD001B022876
:100A200009D828688001F7D51BE000BFFFF72AFD31
:100A3000001B022802D90320BDE8F88F2868800136
:100A4000F4D40EE00128F7D06868226A00F48031FF
:100A5000914204D1616A00F47010884201D00120F3
:100A6000EAE70020E8E700000010024000004242F0
:100A7000800442424C0000200070004010B5401E2F
:100A8000B0F1807F01D3012010BD4FF0E024606100
:100A90000F21601700F03FFD0020A06107202061BA
:100AA000002010BD70B590F83C20012A26D001240A
:100AB00080F83C40022280F83D2003685A689D6817
:100AC00022F070060A6832435A600D4B02689A425F
:100AD00008D0B2F1804F05D00A4B9A4202D00A4B9F
:100AE0009A4204D1496825F080031943916080F847
:100AF0003D40002180F83C10084670BD022070BDCA
:100B0000002C0140000400400008004000B585B002
:100B10000021009101910291039100680B498842E4
:100B200011D10B48816941F00401816180696946F6
:100B300000F004000490C020009002200190039077
:100B40000448FFF7A9FB05B000BD00000004004009
:100B5000001002400008014070B5044690F83C00C7
:100B600000260D4601280FD0012084F83C006AB110
:100B7000042A1DD0082A2FD00C2A3FD0012600209D
:100B800084F83C00304670BD022070BD206800F043
:100B900087FB2068816941F00801816120688169D3
:100BA00021F004018161206881692A69114311E003
:100BB000206800F09DFB2068816941F4006181613B
:100BC0002068816921F480618161206881692A69D6
:100BD00041EA02218161D2E7206800F0B5FB20687C
:100BE000C16941F00801C1612068C16921F00401B7
:100BF000C1612068C1692A69114311E0206800F0D1
:100C0000CFFB2068C16941F40061C1612068C169FE
:100C100021F48061C1612068C1692A6941EA022129
:100C2000C161ACE710B5040003D094F83D0010B1E9
:100C300007E0012010BD002084F83C00204600F0B1
:100C40001FF8022084F83D00211D206800F0E4FA1E
:100C5000012084F8460084F83E0084F83F0084F8C0
:100C6000400084F8410084F8420084F8430084F88E
:100C7000440084F8450084F83D00002010BD0000C9
:100C800008B500680649884208D10648C16941F0A4
:100C90000201C161C06900F00200009008BD0000BF
:100CA000000400400010024010B50446022249B181
:100CB00004290ED0082913D094F84100012816D039
:100CC000012010BD94F83E000128F9D184F83E209F
:100CD0000FE094F83F000128F2D184F83F2008E0AB
:100CE00094F840000128EBD184F8402001E084F81A
:100CF00041200122206800F0C5FA0F49206888428F
:100D000003D1426C42F4004242642068884208D019
:100D1000B0F1804F05D00949884202D00849884285
:100D200004D1816801F00701062903D0016841F070
:100D300001010160002010BD002C014000040040B2
:100D40000008004070B5040004D094F8410000256C
:100D500010B106E0012070BD84F84050204600F03C
:100D600023F8242084F841002068C16821F4005150
:100D7000C160204600F036FB2068016921F49041F3
:100D800001612068416921F02A0141612068C16840
:100D900041F40051C1606564202084F8410084F86A
:100DA00042006563002070BD30B585B0002400941A
:100DB00001940294039400681449884224D1144891
:100DC000816941F480418161816901F4804104912C
:100DD000816941F00401816180690E4D00F00400D9
:100DE00004904FF4007000900220019003200390C3
:100DF00069462846FFF750FA2815CDE900046946F0
:100E000028460294FFF748FA05B030BD003801408B
:100E100000100240000801402DE9F843044690F814
:100E20004200994616460D46202802D00220BDE811
:100E3000F883ADB1A6B100206064222184F842108D
:100E40002063FFF71FFBA6858046E685A0684FF468
:100E50008057B84201D1206920B12E46002526E0F6
:100E60000120E4E7002622E043460022202120461C
:100E7000CDF8009000F012FB08B10320D7E726B1AF
:100E8000A068B8421BD038B108E020684068C0F3C1
:100E9000080025F8020B07E0206980B1206840684F
:100EA00000F07F0006F8010BE08D401EE085E08D2C
:100EB0000028D9D1202084F842000020B7E720681C
:100EC0004068EFE7FEE700002DE9F04186B000261C
:100ED0002A480096019602960396816941F0200106
:100EE0008161816901F020010491816941F004016F
:100EF0008161816901F004010491816941F0080177
:100F000081618069DFF8788000F008000490002299
:100F100049F606014046FFF7AFFA1A4F00224FF696
:100F2000F8713846FFF7A8FA022506200124039538
:100F30008DE8510069464046FFF7AEF94FF4705016
:100F400003958DE8510069463846FFF7A5F94CF244
:100F5000F830CDE9000469463846CDE90245FFF78F
:100F60009BF94FF41840CDE9000469464046CDE9AD
:100F70000245FFF791F906B0BDE8F081001002408C
:100F800000080140000C014010B58AB0002407940D
:100F90001C2168460894FFF717F91B48194901609E
:100FA0004721C0E9011442F20F71C0E90314802106
:100FB0008161FFF737FE08B1FFF76BF9079407A9C6
:100FC00011480894FFF76EFD08B1FFF762F9602041
:100FD000CDE900040294002269460B480494FFF70F
:100FE000BBFD08B1FFF755F9042269460648FFF733
:100FF000B3FD08B1FFF74DF90348FFF787FD0AB0CD
:1010000010BD000000040040500000200C4810B546
:101010000A4901604FF416514160002181600C22A1
:10102000C160C0E904128161C161FFF78BFE002835
:1010300003D0BDE81040FFF72CB910BD00380140C7
:10104000980000202DE9F041054617460E4680F035
:10105000004000F07BFC394600F0C0FB0D4C3146EF
:101060002060284600F072FC394600F0B7FB606053
:101070003146284600F05FFC394600F0AFFBA06027
:101080003146284600F0AAFB394600F0A7FBE06095
:10109000BDE8F08100000020FEE700002DE9F05FD0
:1010A0004FF4000A3E4CDFF8FC801D4616460F4602
:1010B000504506DB012220212046FFF7DDF9002202
:1010C0000CE0404501D3002203E010F0FF4F09D1AE
:1010D000012220212046FFF7CFF9012210212046CE
:1010E000FFF7CAF9DFF8C0904FF4004B574506DB15
:1010F000012208212046FFF7BFF900220CE04745F6
:1011000001D3002203E017F0FF4F09D1012208218B
:101110002046FFF7B1F9012259464846FFF7ACF9DE
:1011200057464FF480514FF4006ABE4206DB01225D
:101130004E464846FFF7A0F900220CE0464501D391
:10114000002203E016F0FF4F09D101224E46484627
:10115000FFF792F9012251463046FFF78DF94FF41F
:101160008046BD4206DB012259462046FFF784F93E
:1011700000220CE0454501D3002203E015F0FF4FAB
:101180000BD1012259462046FFF776F9012231465C
:101190002046BDE8F05FFFF76FB9BDE8F09F0000A3
:1011A000000C01400000808000080140FEE770470D
:1011B0007047FFF76DB930B58FB028216846FFF74B
:1011C00003F814210AA8FEF7FFFF01210804CDE966
:1011D00000100024029402250491CDE907504FF439
:1011E000E01009906846FFF7B9FA08B172B6FEE759
:1011F0000F20CDE90A054FF48060CDE90C400221B3
:101200000AA80E94FFF7CEF9002801D072B6FEE7C7
:101210000FB030BD70470000F0B50268164B174C98
:10122000174D4FF08047984205D0B84203D0A042F6
:1012300001D0A84203D122F070064A683243984296
:1012400005D0B84203D0A04201D0A84203D122F475
:101250004074CA6822434C6922F080022243026033
:101260008A68C2620A688262984201D10969016390
:1012700001214161F0BD0000002C0140000400404C
:101280000008004010B501F01F030121046A9940D5
:101290008C430462016A9A401143016210BD000050
:1012A00030B5036A026A22F0010202624268846970
:1012B00024F073050C682C4323F002058B682B4344
:1012C0000A4DA8420BD123F00805CB6822F44072E6
:1012D0002B434D6923F0040315438A692A43426076
:1012E000846149684163036230BD0000002C014005
:1012F00030B5026A036A23F010030362436884690D
:101300000D6824F4E64444EA05248D6822F02002A6
:1013100042EA05120B4DA8420ED1CD6822F08002A0
:1013200042EA05124D6923F4406343EA85038D695F
:1013300022F0400243EA8503436084614968816387
:10134000026230BD002C014030B5036A026A22F40B
:10135000807202624268C46923F4007324F073054A
:101360000C682C438D6843EA05230C4DA8420ED12E
:10137000CD6823F4006343EA05234D6922F440520B
:1013800042EA05128D6923F4806342EA0512426045
:10139000C4614968C163036230BD0000002C014094
:1013A00030B5046A026A22F4805202624268C3695C
:1013B0000D6823F4E64343EA05238D6824F40054C2
:1013C00044EA0534064DA84204D14D6922F4804216
:1013D00042EA85124260C36149680164046230BD1B
:1013E000002C014070B5044600680169E26821F4F0
:1013F0004051114301612169A068084361690843B4
:101400002168CA6841F20C639A430243CA602068AB
:101410004169A26921F44071114341611E4920686C
:10142000884202D1FFF764F901E0FFF751F900EBC0
:10143000C00101EB0012606864218000B2FBF0F390
:10144000B3FBF1F36FF018067343B2FBF0F5B2FB98
:10145000F0F605EB8305322303EB0515B5FBF1F53B
:10146000B6FBF1F605F0F00505EB0615B2FBF0F65C
:10147000B2FBF0F0B0FBF1F06FF01802504306EB56
:10148000800003EB0010B0FBF1F0216800F00F00CA
:101490002844886070BD0000003801402DE9F0410B
:1014A000984617460E460446069D27E0681C25D040
:1014B0002DB1FEF7E7FFA0EB0800A8421ED9206877
:1014C0000C3050E8001F21F4D07140E80012002ACF
:1014D000F5D12068143050E8001F21F0010140E8E8
:1014E0000012002AF5D1202084F8410084F842003F
:1014F000002084F840000320BDE8F08120680068E7
:1015000036EA000004D00020B842CFD00020F3E734
:101510000120F9E7FEE70907090E002804DB00F1C6
:10152000E02080F80014704700F00F0000F1E02088
:1015300080F8141D70470000FEF7B2FFFFF73BFE76
:10154000FFF7C2FCFFF762FDFFF71EFD00215C48BC
:10155000FFF7AAFB04215A48FFF7A6FB5A4DDFF814
:101560006481DFF85CA14FF0010B4FF00009A5F199
:101570001C040122510246464046FEF77DFF01222F
:1015800011023046FEF778FF012280213046FEF737
:1015900073FF012240213046FEF76EFF4FF6FF73C6
:1015A000012249494948FFF737FC2878462814D0DA
:1015B000442815D0452818D0472819D04B281AD0D0
:1015C00048281DD04A281ED049281FD0412824D0A1
:1015D000422835D043285FD047E000203C4901E055
:1015E0003C490020C4E90E013FE000200146F9E734
:1015F0000020374901E037490020C4E90A0134E0FE
:101600000020334906E00020324903E00020C4E90D
:101610000A000146C4E90C0127E0206940B1DAF86C
:10162000000040F2DC5141634846C4F8109011E0DC
:10163000DAF8000040F2D6614163C4F810B012E05D
:10164000606948B1DAF8000040F27E4181634846A3
:10165000C4F81490287008E0DAF800004FF44871DC
:101660008163C4F814B085F80090D4E90E0100F04D
:1016700035F80746D4E90C0100F030F80646D4E905
:101680000A0100F02BF83A463146FFF7DBFC94E8FC
:101690000F00FFF703FD6CE7A06940B101220221B2
:1016A0000D48FEF7E9FE4846C4F81890D2E700223C
:1016B00002210948FEF7E0FEC4F818B0D3E70000A5
:1016C00050000020000C01401C0000209800002069
:1016D0000000F03F0000F0BF0008014021F0004290
:1016E000A2F16052B2F5801F01F0004328BFD2F191
:1016F0007F6C0BD95FEA001C43EAC20242EB5070D8
:1017000018BF704728BF20F001007047B2F5801F56
:10171000BCBF184670474FEA410C1CF5001F02D2AF
:10172000084600F003B970B500F009F80000008920
:10173000FFF7F6BF4FF00040A0F5800070470EF1B4
:10174000020E2EF0030E5EF8046B364205D4012A19
:1017500043EB030515F5001F12D8012841EB010CDE
:101760001CF5001F0CD80ED14FEAD17C15F5001FD7
:101770000CEB4C0C0CF1020C08BF4CEBD37C04E0DE
:101780004FF0080C01E04FEAD37C0CEB4C0526FA35
:1017900005F606F00706B6F1040C06D20EEB860C31
:1017A000BDE870404CF0010C6047DFE80CF0090B1D
:1017B00002024FF000414FF00000A1F5002170BD82
:1017C00019461046012851EB010418BFD4F5001446
:1017D00084BF002001F0004170BD000090EA010FBD
:1017E00048BF81F0004100F1B880421A3CBF801A26
:1017F00089184FEAD0524FF07F4C1CEA410FA2EB00
:10180000D15318BF9CEA026F00F03B804FF0004CB0
:101810004CEA00204CEA012121FA03FC10EB0C0CED
:101820001ED202F1FF325FEA1C2040EBC25038BFEB
:1018300070471CF07F0F4FEA400C18BFBCF17F4F80
:1018400038BF7047C3F12003994008BF20F0010062
:10185000BCF17F4F38BF7047A0F1C04000F066B8C0
:101860004FEA3C00000A40EBC25028BF1CF0FF0FBB
:101870004FEA400CE6D018BFBCF17F4F38BF70472D
:10188000EAE79CEA026F05D010EA5C0F08BF00F09F
:101890000040704710B500F003F800BF64FBBE3E87
:1018A0000EF1020E2EF0030E5EF8044B244204D417
:1018B0004FEA4102B2F17F4F11D84FEA4003B3F132
:1018C0007F4F0CD80ED14FEAD07CB2F17F4F0CEB9A
:1018D0004C0C0CF1020C08BF4CEBD17C04E04FF037
:1018E000080C01E04FEAD17C0CEB4C0324FA03F422
:1018F00004F00704B4F1040C06D20EEB840CBDE82E
:1019000010404CF0010C6047DFE80CF007080202C1
:101910004FF00040A0F5800010BD0846420018BFFF
:10192000D2F1807288BF00F0004010BDFF2141EA73
:10193000D050C005704780F0004090EA010F7FF55D
:1019400054AF81F0004100F008B8000090EA010FA8
:1019500048BF81F000413FF548AF421A04D882F0F9
:101960000042A0EB020011444FEAD0524FF07F4CEE
:101970001CEA410FA2EBD15318BF9CEA026F4AD078
:101980004FF0004C4CEA00204CEA012121FA03FC04
:10199000B0EB0C0C0FD412F0FE0F36D05FEA4C0007
:1019A0001DD5001240EBC25038BF70471CF03F0FEE
:1019B00018BF70470BE0A2F101025FEA1C2040EB68
:1019C000C25038BF70471CF07F0F18BF7047C3F17B
:1019D0002003994014BF401E20F00100704780088A
:1019E0004FEA122308BF7047B0FA80FCA2EB0C024A
:1019F000CCF1280C60FA0CF093EA122F04BF00EB34
:101A0000C25070474FEAC3707047130A5FEADC1098
:101A100008BF7047F6E79CEA026F04D010EA5C0F3B
:101A200008BF0020704710B5FFF73AFF40DFF63ED1
:101A300081F000407047010202030405060708090F
:101A40000A0B0C0D0E0F101000000000000000002B
:101A50000102030406070809000000000102030454
:101A6000801A000800000020500000002801000833
:101A7000D01A000850000020F006000044010008C1
:101A80000000000000000000000000000000000056
:101A90000000000000000000000000000000000046
:101AA0000000000000000000000000000000000036
:101AB0000000000000000000000000000000000026
:101AC0000100000010000000000000000024F400ED
:04000005080000ED02
:00000001FF
