:020000040800F2
:10000000300700208901000879110008C50E00089A
:10001000651000088F020008E114000800000000CD
:100020000000000000000000000000007D1100083A
:1000300091020008000000007B1100087F110008F9
:10004000A3010008A3010008A3010008A301000800
:10005000A3010008A3010008A3010008A3010008F0
:10006000A3010008A3010008A3010008A3010008E0
:10007000A3010008A3010008A3010008A3010008D0
:10008000A3010008A3010008A3010008A3010008C0
:10009000A3010008A3010008A3010008A3010008B0
:1000A000A3010008A3010008A3010008A3010008A0
:1000B000A3010008A3010008A3010008A301000890
:1000C000A3010008A3010008A3010008A301000880
:1000D000A3010008A3010008A3010008A301000870
:1000E000A3010008A3010008A301000800F002F822
:1000F00000F03AF80AA090E8000C82448344AAF188
:100100000107DA4501D100F02FF8AFF2090EBAE885
:100110000F0013F0010F18BFFB1A43F0010318473B
:10012000A0180000C0180000103A24BF78C878C199
:10013000FAD8520724BF30C830C144BF04680C60ED
:10014000704700000023002400250026103A28BF35
:1001500078C1FBD8520728BF30C148BF0B60704739
:100160001FB51FBD10B510BD00F058F81146FFF7C0
:10017000F7FF01F0C7F900F076F803B4FFF7F2FFDC
:1001800003BC00F07DF8000009488047094800479B
:10019000FEE7FEE7FEE7FEE7FEE7FEE7FEE7FEE737
:1001A000FEE7FEE704480549054A064B7047000094
:1001B000E1110008ED0000083001002030070020A8
:1001C00030030020300300204FF0000200B513463A
:1001D00094469646203922BFA0E80C50A0E80C5067
:1001E000B1F12001BFF4F7AF090728BFA0E80C5018
:1001F00048BF0CC05DF804EB890028BF40F8042B11
:1002000008BF704748BF20F8022B11F0804F18BF7D
:1002100000F8012B7047704770477047754600F033
:100220002BF8AE4605006946534620F00700854688
:1002300018B020B5FFF7B6FFBDE820404FF000062C
:100240004FF000074FF000084FF0000B21F00701BE
:10025000AC46ACE8C009ACE8C009ACE8C009ACE801
:10026000C0098D46704710B50446AFF300802046A4
:10027000BDE81040FFF781BF00487047D000002064
:1002800001491820ABBEFEE7260002007047FEE7DA
:10029000704772B6FEE700002DE9F84FDFF8B8911D
:1002A0000024A9F1040B23460F2709F1040AABF13E
:1002B000040EC9E00125A5402A40AA427DD1674E1F
:1002C000D1F804C0ACEB0608B44532D014DCBCF164
:1002D000030F3AD009DCBCF1000F2AD0BCF1010FAA
:1002E0001CD0BCF1020F31D11DE0BCF1110F17D0B1
:1002F000BCF1120F2AD119E0B8F5881F19D006DC1D
:10030000B8F5803F15D0B8F5801F1FD111E0B8F5C2
:10031000001F0ED0B8F5041F18D10AE0CB6815E015
:10032000CB681B1D12E0CB6808330FE0CB680C33A1
:100330000CE08B682BB1012B4FF0080303D0456113
:1003400004E0042302E0056100E00023FF2A01D855
:10035000064601E000F104064FEA840501D9A5F143
:100360002005D6F8008007FA05FC28EA0C0803FAF5
:1003700005F548EA0508C6F800804D68ED0062D52D
:10038000374DAE6946F00106AE61AD6924F0030653
:1003900005F001050095334D06EB050CDCF808501F
:1003A000A607360F07FA06F825EA0805DFF8B88031
:1003B000404503D14FF0000817E044E0DFF8AC807F
:1003C000404502D14FF001080FE0DFF8A48040451E
:1003D00002D14FF0020808E0DFF89880404502D1D2
:1003E0004FF0030801E04FF0040808FA06F848EA65
:1003F0000508CCF808804D68D9F80060ED024D463C
:1004000001D5164300E096432E604D68DAF800608F
:10041000AD02554601D5164300E096432E604D6867
:10042000DBF80060AD035D4601D5164300E096435E
:100430002E604D68DEF80060ED03754601D5164369
:1004400000E096432E60641C0D682A46E5407FF468
:1004500031AFBDE8F88F0000080401400000111022
:10046000001002400000014000080140000C014063
:1004700000100140001401400AB1016170470904F5
:10048000FBE7000001488068704700003000002052
:100490000248816802781144816070473000002072
:1004A000074810B5016841F010010160032000F019
:1004B00067F80F2000F006F800F024F8002010BDC7
:1004C0000020024070B50D4D04464FF47A71287833
:1004D000B1FBF0F00A490968B1FBF0F000F0CEFA88
:1004E00048B9102C07D200222146501E00F028F8EF
:1004F00000206C6070BD012070BD00003000002045
:100500003C0000200C4808B5816941F0010181617F
:10051000816901F001010091C16941F08051C1611F
:10052000C06900F0805000900448416821F0E0610B
:1005300041F00071416008BD001002400000014020
:10054000F0B40E4B1B680C46C3F30223C3F107053E
:10055000042D00D90425191D072901D2002300E02C
:10056000DB1E012606FA05F1491E214099409E40F6
:10057000761E16403143F0BC00F0B3BF0CED00E036
:10058000064900F0070208684FF6FF03184040EAEA
:100590000220034A10430860704700000CED00E0A1
:1005A0000000FA052DE9F0470F46050061D0434EE3
:1005B000306800F00700B84209D2306820F0070028
:1005C00038433060306800F00700B84251D12868E5
:1005D0003B4C810712D5400703D5606840F4E060CA
:1005E00060602878000703D5606840F46050606060
:1005F0006068A96820F0F000084360602878C007B0
:1006000028D06868012810D02168022810D08907F6
:1006100000292EDA616821F0030101436160FFF7D0
:1006200031FF804641F288390DE021688903EFE708
:100630008901EDE7FFF726FFA0EB0801494502D944
:100640000320BDE8F0876068696800F00C00B0EB3B
:10065000810FEFD1306800F00700B8420BD9306845
:1006600020F0070038433060306800F00700B842DF
:1006700001D00120E5E72878400705D56068E968E2
:1006800020F4E060084360602878000706D56068C1
:10069000296920F4605040EAC100606000F038F839
:1006A0006168084AC1F30311515CC84006490860FB
:1006B00006480068FFF706FF0020C2E7002002405E
:1006C00000100240A81900083C000020340000205F
:1006D0000448054900684968044AC1F30221515C95
:1006E000C84070473C00002000100240B8190008C4
:1006F0000448054900684968044AC1F3C221515CB5
:10070000C84070473C00002000100240B8190008A3
:100710000E4A51680E4801F00C03042B11D0082B2F
:100720000FD10C48C1F38343C903C05C0AD551689B
:10073000084AC1F34041921E515C054A5043B0FB48
:10074000F1F0704704494843704700000010024030
:1007500000127A009819000800093D002DE9F84FB1
:10076000040070D02078C04DC00749D06868C0F33D
:100770008100012807D06868C0F38100022809D1F0
:100780006868C00306D52868800339D560680028EA
:10079000E7D035E06068B0F5803F0BD010B1B0F520
:1007A000A02F11D0286820F480302860286820F419
:1007B000802002E0286840F480302860606890B1B2
:1007C000FFF760FE06460AE0286840F480202860B3
:1007D000F0E700BFFFF756FE801B642873D8286837
:1007E0008003F7D50CE0FFF74DFE064605E000BF9D
:1007F000FFF748FE801B6428F0D828688003F7D4F0
:1008000020789A4E80074FF001094FF0000839D543
:10081000686810F00C0F07D06868C0F381000228E8
:1008200009D16868C00306D42868800714D52069F8
:10083000012808D110E02069B0B1C6F80090FFF798
:1008400021FE074605E00AE1FFF71CFEC01B022857
:10085000C4D828688007F7D52868616920F0F800B7
:1008600040EAC10028600DE0C6F80080FFF70AFEEC
:10087000074604E0FFF706FEC01B022823D82868BD
:100880008007F7D4207800072CD57948A169D9B121
:10089000C0F80090FFF7F6FD074604E0FFF7F2FD11
:1008A000C01B02280FD8686A8007F7D571484FF43B
:1008B000FA510068B0FBF1F0009000BF0098411EB3
:1008C0000091FAD20EE080E0C0F80080FFF7DAFD78
:1008D000074604E0FFF7D6FDC01B022875D8686AFA
:1008E0008007F7D42078400760D5E8690027C0006A
:1008F00008D4E86940F08050E861E869012700F019
:10090000805000905C480168C90513D40168834693
:1009100041F480710160FFF7B5FD824606E000BF3B
:10092000FFF7B0FDA0EB0A0064284ED8DBF800000A
:10093000C005F5D5E06801280AD008B1052813D014
:10094000286A20F001002862286A20F0040002E0F2
:10095000286A40F001002862E06841F2883B98B1C3
:10096000FFF790FD82460BE0286A40F00400286201
:10097000EEE700BFFFF786FDA0EB0A0159455AD804
:10098000286A8007F6D50CE0FFF77CFD824605E07B
:10099000FFF778FDA0EB0A0159454CD8286A80077B
:1009A000F6D41FB1E86920F08050E861E06988B3AF
:1009B0006968C1F38101022944D00228C6F8608029
:1009C00004D0FFF75FFD044638E034E0FFF75AFD3E
:1009D000074604E0FFF756FDC01B02282BD8286805
:1009E0008001F7D4206AB0F5803F05D16868A1681E
:1009F00020F4003008436860D4E9080108436968BE
:100A000021F4741108436860C6F86090FFF73AFD5E
:100A1000044606E025E000BFFFF734FD001B022876
:100A200009D828688001F7D51BE000BFFFF72AFD31
:100A3000001B022802D90320BDE8F88F2868800136
:100A4000F4D40EE00128F7D06868226A00F48031FF
:100A5000914204D1616A00F47010884201D00120F3
:100A6000EAE70020E8E700000010024000004242F0
:100A7000800442423C0000200070004010B5401E3F
:100A8000B0F1807F01D3012010BD4FF0E024606100
:100A90000F21601700F025FD0020A06107202061D4
:100AA000002010BD70B590F83C20012A26D001240A
:100AB00080F83C40022280F83D2003685A689D6817
:100AC00022F070060A6832435A600D4B02689A425F
:100AD00008D0B2F1804F05D00A4B9A4202D00A4B9F
:100AE0009A4204D1496825F080031943916080F847
:100AF0003D40002180F83C10084670BD022070BDCA
:100B0000002C0140000400400008004000B585B002
:100B10000021009101910291039100680B498842E4
:100B200011D10B48816941F00401816180696946F6
:100B300000F00400049040200090022001900390F7
:100B40000448FFF7A9FB05B000BD00000004004009
:100B5000001002400008014070B5044690F83C00C7
:100B600000260D4601280FD0012084F83C006AB110
:100B7000042A1DD0082A2FD00C2A3FD0012600209D
:100B800084F83C00304670BD022070BD206800F043
:100B90006DFB2068816941F00801816120688169ED
:100BA00021F004018161206881692A69114311E003
:100BB000206800F083FB2068816941F40061816155
:100BC0002068816921F480618161206881692A69D6
:100BD00041EA02218161D2E7206800F09BFB206896
:100BE000C16941F00801C1612068C16921F00401B7
:100BF000C1612068C1692A69114311E0206800F0D1
:100C0000B5FB2068C16941F40061C1612068C16918
:100C100021F48061C1612068C1692A6941EA022129
:100C2000C161ACE710B5040003D094F83D0010B1E9
:100C300007E0012010BD002084F83C00204600F0B1
:100C40001FF8022084F83D00211D206800F0CAFA38
:100C5000012084F8460084F83E0084F83F0084F8C0
:100C6000400084F8410084F8420084F8430084F88E
:100C7000440084F8450084F83D00002010BD0000C9
:100C800008B500680649884208D10648C16941F0A4
:100C90000201C161C06900F00200009008BD0000BF
:100CA000000400400010024010B50446022249B181
:100CB00004290ED0082913D094F84100012816D039
:100CC000012010BD94F83E000128F9D184F83E209F
:100CD0000FE094F83F000128F2D184F83F2008E0AB
:100CE00094F840000128EBD184F8402001E084F81A
:100CF00041200122206800F0ABFA0F4920688842A9
:100D000003D1426C42F4004242642068884208D019
:100D1000B0F1804F05D00949884202D00849884285
:100D200004D1816801F00701062903D0016841F070
:100D300001010160002010BD002C014000040040B2
:100D40000008004070B5040004D094F8410000256C
:100D500010B106E0012070BD84F84050204600F03C
:100D600023F8242084F841002068C16821F4005150
:100D7000C160204600F01CFB2068016921F490410D
:100D800001612068416921F02A0141612068C16840
:100D900041F40051C1606564202084F8410084F86A
:100DA00042006563002070BD30B585B0002400941A
:100DB00001940294039400681449884224D1144891
:100DC000816941F480418161816901F4804104912C
:100DD000816941F00401816180690E4D00F00400D9
:100DE00004904FF4007000900220019003200390C3
:100DF00069462846FFF750FA2815CDE900046946F0
:100E000028460294FFF748FA05B030BD003801408B
:100E100000100240000801402DE9F843044690F814
:100E20004200994616460D46202802D00220BDE811
:100E3000F883ADB1A6B100206064222184F842108D
:100E40002063FFF71FFBA6858046E685A0684FF468
:100E50008057B84201D1206920B12E46002526E0F6
:100E60000120E4E7002622E043460022202120461C
:100E7000CDF8009000F0F8FA08B10320D7E726B1CA
:100E8000A068B8421BD038B108E020684068C0F3C1
:100E9000080025F8020B07E0206980B1206840684F
:100EA00000F07F0006F8010BE08D401EE085E08D2C
:100EB0000028D9D1202084F842000020B7E720681C
:100EC0004068EFE7FEE700002DE9F04186B0002022
:100ED00000900190029003901F48816941F0200129
:100EE0008161816901F020010491816941F004016F
:100EF0008161816901F004010491816941F0080177
:100F000081618069154F00F008004CF2F8340490BC
:100F1000002221463846FFF7AFFADFF844804FF44D
:100F20001846002231464046FFF7A6FA00940124F5
:100F30000225694638460194CDE90245FFF7ACF930
:100F4000CDE9006469464046CDE90245FFF7A4F9C2
:100F500006B0BDE8F081000000100240000C014026
:100F60000008014010B58AB0002407941C2168468F
:100F70000894FFF729F91748154901604721C0E98E
:100F8000011444F61F61C0E9031480218161FFF759
:100F900049FE08B1FFF77DF9079407A90D480894A9
:100FA000FFF780FD08B1FFF774F96020CDE9000478
:100FB00002940022694607480494FFF7CDFD08B16A
:100FC000FFF767F90348FFF7A1FD0AB010BD000065
:100FD00000040040400000200C4810B50A490160A0
:100FE0004FF416514160002181600C22C160C0E9BC
:100FF00004128161C161FFF7A5FE002803D0BDE89E
:101000001040FFF746B910BD0038014088000020AD
:101010002DE9F041054617460E4680F0004000F0ED
:1010200045FC394600F08AFB0D4C314620602846CD
:1010300000F03CFC394600F081FB606031462846F8
:1010400000F029FC394600F079FBA06031462846C3
:1010500000F074FB394600F071FBE060BDE8F08100
:1010600000000020FEE700002DE9F05F4FF4000AC9
:101070003E4CDFF8FC801D4616460F46504506DB09
:10108000012220212046FFF7F7F900220CE040451D
:1010900001D3002203E010F0FF4F09D101222021EB
:1010A0002046FFF7E9F9012210212046FFF7E4F975
:1010B000DFF8C0904FF4004B574506DB01220821B2
:1010C0002046FFF7D9F900220CE0474501D3002262
:1010D00003E017F0FF4F09D1012208212046FFF756
:1010E000CBF9012259464846FFF7C6F957464FF457
:1010F00080514FF4006ABE4206DB01224E4648464C
:10110000FFF7BAF900220CE0464501D3002203E0C4
:1011100016F0FF4F09D101224E464846FFF7ACF9C1
:10112000012251463046FFF7A7F94FF48046BD42F1
:1011300006DB012259462046FFF79EF900220CE00B
:10114000454501D3002203E015F0FF4F0BD10122EA
:1011500059462046FFF790F9012231462046BDE866
:10116000F05FFFF789B9BDE8F09F0000000C014077
:101170000000808000080140FEE770477047FFF7DD
:1011800087B930B58FB028216846FFF71DF81421C4
:101190000AA8FFF719F801210804CDE9001000247E
:1011A000029402250491CDE907504FF4E010099014
:1011B0006846FFF7D3FA08B172B6FEE70F20CDE913
:1011C0000A054FF48060CDE90C4002210AA80E9474
:1011D000FFF7E8F9002801D072B6FEE70FB030BD86
:1011E00070470000F0B50268164B174C174D4FF0D2
:1011F0008047984205D0B84203D0A04201D0A8420F
:1012000003D122F070064A683243984205D0B842B2
:1012100003D0A04201D0A84203D122F44074CA688E
:1012200022434C6922F08002224302608A68C26233
:101230000A688262984201D1096901630121416112
:10124000F0BD0000002C01400004004000080040F8
:1012500010B501F01F030121046A99408C43046218
:10126000016A9A401143016210BD000030B5036A63
:10127000026A22F0010202624268846924F0730566
:101280000C682C4323F002058B682B430A4DA842BF
:101290000BD123F00805CB6822F440722B434D6933
:1012A00023F0040315438A692A4342608461496834
:1012B0004163036230BD0000002C014030B5026A7A
:1012C000036A23F010030362436884690D6824F401
:1012D000E64444EA05248D6822F0200242EA051221
:1012E0000B4DA8420ED1CD6822F0800242EA0512D1
:1012F0004D6923F4406343EA85038D6922F040027F
:1013000043EA85034360846149688163026230BDBA
:10131000002C014030B5036A026A22F48072026236
:101320004268C46923F4007324F073050C682C43ED
:101330008D6843EA05230C4DA8420ED1CD6823F4F5
:10134000006343EA05234D6922F4405242EA051244
:101350008D6923F4806342EA05124260C4614968E2
:10136000C163036230BD0000002C014030B5046A47
:10137000026A22F4805202624268C3690D6823F453
:10138000E64343EA05238D6824F4005444EA053417
:10139000064DA84204D14D6922F4804242EA8512EA
:1013A0004260C36149680164046230BD002C0140A1
:1013B00070B5044600680169E26821F440511143A8
:1013C00001612169A0680843616908432168CA680E
:1013D00041F20C639A430243CA6020684169A269E2
:1013E00021F44071114341611E492068884202D1B5
:1013F000FFF77EF901E0FFF76BF900EBC00101EBAD
:101400000012606864218000B2FBF0F3B3FBF1F3DB
:101410006FF018067343B2FBF0F5B2FBF0F605EB84
:101420008305322303EB0515B5FBF1F5B6FBF1F6A9
:1014300005F0F00505EB0615B2FBF0F6B2FBF0F097
:10144000B0FBF1F06FF01802504306EB800003EBA5
:101450000010B0FBF1F0216800F00F002844886014
:1014600070BD0000003801402DE9F0419846174654
:101470000E460446069D27E0681C25D02DB1FFF7D7
:1014800001F8A0EB0800A8421ED920680C3050E8F3
:10149000001F21F4D07140E80012002AF5D1206825
:1014A000143050E8001F21F0010140E80012002A2A
:1014B000F5D1202084F8410084F84200002084F80F
:1014C00040000320BDE8F0812068006836EA000093
:1014D00004D00020B842CFD00020F3E70120F9E784
:1014E000FEE70907090E002804DB00F1E02080F880
:1014F0000014704700F00F0000F1E02080F8141D88
:1015000070470000FEF7CCFFFFF73BFEFFF7DCFC67
:10151000FFF762FDFFF726FD00214248FFF7C4FBFD
:10152000DFF8009140F2DC5AD9F80010C1F834A07D
:10153000DFF8F8803C4E4FF4007BA8F11004012244
:1015400059463046FEF798FF012211023046FEF759
:1015500093FF012280213046FEF78EFF01224021B9
:101560003046FEF789FF4FF6FF7301222F493048BE
:10157000FFF752FC98F80000442812D0462813D0F8
:10158000452816D0472817D04B2818D048281BD0FC
:101590004A281CD049281DD0412822D0422826D0D4
:1015A00029E00020234901E023490020C4E90A0181
:1015B00021E000200146F9E700201E4901E01E4914
:1015C0000020C4E9060116E000201A4906E00020C8
:1015D000194903E00020C4E906000146C4E90801F6
:1015E00009E0D9F800004FF46171416303E0D9F8D4
:1015F0000010C1F834A0D4E90A0100F01FF8074632
:10160000D4E9080100F01AF80546D4E9060100F013
:1016100015F83A462946FFF7FBFC94E80F00FFF760
:1016200023FD8CE740000020000C0140100000204A
:10163000880000200000F03F0000F0BF21F00042D1
:10164000A2F16052B2F5801F01F0004328BFD2F131
:101650007F6C0BD95FEA001C43EAC20242EB507078
:1016600018BF704728BF20F001007047B2F5801FF7
:10167000BCBF184670474FEA410C1CF5001F02D250
:10168000084600F003B970B500F009F800000089C1
:10169000FFF7F6BF4FF00040A0F5800070470EF155
:1016A000020E2EF0030E5EF8046B364205D4012ABA
:1016B00043EB030515F5001F12D8012841EB010C7F
:1016C0001CF5001F0CD80ED14FEAD17C15F5001F78
:1016D0000CEB4C0C0CF1020C08BF4CEBD37C04E07F
:1016E0004FF0080C01E04FEAD37C0CEB4C0526FAD6
:1016F00005F606F00706B6F1040C06D20EEB860CD2
:10170000BDE870404CF0010C6047DFE80CF0090BBD
:1017100002024FF000414FF00000A1F5002170BD22
:1017200019461046012851EB010418BFD4F50014E6
:1017300084BF002001F0004170BD000090EA010F5D
:1017400048BF81F0004100F1B880421A3CBF801AC6
:1017500089184FEAD0524FF07F4C1CEA410FA2EBA0
:10176000D15318BF9CEA026F00F03B804FF0004C51
:101770004CEA00204CEA012121FA03FC10EB0C0C8E
:101780001ED202F1FF325FEA1C2040EBC25038BF8C
:1017900070471CF07F0F4FEA400C18BFBCF17F4F21
:1017A00038BF7047C3F12003994008BF20F0010003
:1017B000BCF17F4F38BF7047A0F1C04000F066B861
:1017C0004FEA3C00000A40EBC25028BF1CF0FF0F5C
:1017D0004FEA400CE6D018BFBCF17F4F38BF7047CE
:1017E000EAE79CEA026F05D010EA5C0F08BF00F040
:1017F0000040704710B500F003F800BF64FBBE3E28
:101800000EF1020E2EF0030E5EF8044B244204D4B7
:101810004FEA4102B2F17F4F11D84FEA4003B3F1D2
:101820007F4F0CD80ED14FEAD07CB2F17F4F0CEB3A
:101830004C0C0CF1020C08BF4CEBD17C04E04FF0D7
:10184000080C01E04FEAD17C0CEB4C0324FA03F4C2
:1018500004F00704B4F1040C06D20EEB840CBDE8CE
:1018600010404CF0010C6047DFE80CF00708020262
:101870004FF00040A0F5800010BD0846420018BFA0
:10188000D2F1807288BF00F0004010BDFF2141EA14
:10189000D050C005704780F0004090EA010F7FF5FE
:1018A00054AF81F0004100F008B8000090EA010F49
:1018B00048BF81F000413FF548AF421A04D882F09A
:1018C0000042A0EB020011444FEAD0524FF07F4C8F
:1018D0001CEA410FA2EBD15318BF9CEA026F4AD019
:1018E0004FF0004C4CEA00204CEA012121FA03FCA5
:1018F000B0EB0C0C0FD412F0FE0F36D05FEA4C00A8
:101900001DD5001240EBC25038BF70471CF03F0F8E
:1019100018BF70470BE0A2F101025FEA1C2040EB08
:10192000C25038BF70471CF07F0F18BF7047C3F11B
:101930002003994014BF401E20F00100704780082A
:101940004FEA122308BF7047B0FA80FCA2EB0C02EA
:10195000CCF1280C60FA0CF093EA122F04BF00EBD4
:10196000C25070474FEAC3707047130A5FEADC1039
:1019700008BF7047F6E79CEA026F04D010EA5C0FDC
:1019800008BF0020704710B5FFF73AFF40DFF63E72
:1019900081F00040704701020203040506070809B0
:1019A0000A0B0C0D0E0F10100000000000000000CC
:1019B00001020304060708090000000001020304F5
:1019C000E019000800000020400000002801000885
:1019D000201A000840000020F00600004401000822
:1019E00000000000000000000000000000000000F7
:1019F00000000000000000000000000000000000E7
:101A000000000000000000000000000000000000D6
:101A10000100000010000000000000000024F4009D
:04000005080000ED02
:00000001FF
